:020000040800F2
:100000002031002001010008B7060008CB010008DC
:10001000B30600080F040008510B000800000000A0
:10002000000000000000000000000000CD070008F4
:10003000130400080000000053010008B90800087C
:100040001B0100081B0100081B0100081B01000820
:100050001B0100081B0100081B0100081B01000810
:100060001B0100081B0100081B0100081B01000800
:100070001B0100081B0100081B0100081B010008F0
:100080001B0100081B0100081B0100081B010008E0
:100090001B0100081B0100081B0100081B010008D0
:1000A0001B0100081B0100081B0100081B010008C0
:1000B0001B0100081B0100081B0100081B010008B0
:1000C0001B0100081B0100081B0100081B010008A0
:1000D0001B010008CD0900081B0100081B010008D6
:1000E0001B0100081B0100081B010008DFF80CD0F1
:1000F00000F02CF9004800470504000820310020DA
:100100000648804706480047FEE7FEE7FEE7FEE7B1
:10011000FEE7FEE7FEE7FEE7FEE7FEE76D09000803
:10012000ED000008EFF3108072B6704780F310887E
:100130007047334A1368012B04D04FF0010313605A
:10014000304A1060304A116030484FF080510160F1
:100150007047EFF3108272B62948016891B14FF0F1
:10016000000101602748016829B1EFF3098121E905
:10017000F00F00680160244909680968B1E8F00FD0
:1001800081F3098882F310884EF0040E70471E49EF
:1001900008601C494FF00000086019494FF0010049
:1001A00008601B484FF47F01D0F8002041EA0201AB
:1001B000016016484FF080510160164800680068E1
:1001C00080F3088861B662B670471EF0040F0CBF5A
:1001D000EFF30880EFF3098020E9F00F40F804ED19
:1001E0001EF0040F0CBF80F3088880F3098800B567
:1001F00003F0D4F85DF804EB4EF0040E70470000F5
:1002000010010020080100200C01002004ED00E096
:1002100020ED00E008ED00E040EA01039B0703D079
:1002200009E008C9121F08C0042AFAD203E011F835
:10023000013B00F8013B521EF9D27047D2B201E0F7
:1002400000F8012B491EFBD270470022F6E710B5DB
:1002500013460A4604461946FFF7F0FF204610BD34
:10026000421E12F8013F002BFBD111F8013B02F8AE
:10027000013B002BF9D1704710B5044604E00B7820
:1002800000F8013B03B1491C521EF8D2204610BDB4
:10029000421C10F8011B0029FBD1801A704730B5B1
:1002A00004460020034600E05B1C934203D2E05C5E
:1002B000CD5C401BF8D030BD034611F8012B00F88F
:1002C000012B002AF9D11846704730B505460020A9
:1002D000034600E05B1C934205D2EC5CC85C201A2C
:1002E00001D1002CF6D130BD2DE9F05F054600208C
:1002F00092469B4688460646814640241BE0284697
:1003000041464746224600F042F853465A46C01A34
:10031000914110D311461846224600F029F82D1AB3
:1003200067EB01084F4622460120002100F020F82B
:1003300017EB00094E41201EA4F10104DFDC484602
:1003400031462A464346BDE8F09F0000064C074D63
:1003500006E0E06840F0010394E807009847103495
:10036000AC42F6D3FFF7C6FE486200086862000898
:10037000202A04DB203A00FA02F100207047914065
:10038000C2F1200320FA03F3194390407047202A5A
:1003900004DB203A21FA02F00021704721FA02F32F
:1003A000D040C2F12002914008431946704770B511
:1003B0008C1810F8015B15F0070301D110F8013B10
:1003C0002A1106D110F8012B03E010F8016B01F897
:1003D000016B5B1EF9D12B0705D40023521E0DD4EF
:1003E00001F8013BFAE710F8013BCB1A921C03E03D
:1003F00013F8015B01F8015B521EF9D5A142D8D375
:10040000002070BD10B505F039F8002010BD00BF08
:10041000FEE770472DE9F041024600250026002046
:1004200000230024002791F803C00CF00F0591F879
:1004300003C00CF0100CBCF1000F03D091F802C007
:100440004CEA050591F800C0BCF1000F31D01468EA
:1004500000202BE04FF0010C0CFA00F3B1F800C0C3
:100460000CEA03069E4220D183004FF00F0C0CFAD9
:1004700003F7BC4305FA03FC4CEA040491F803C0FB
:10048000BCF1280F06D14FF0010C0CFA00FCC2F8A9
:1004900014C00AE091F803C0BCF1480F05D14FF039
:1004A000010C0CFA00FCC2F810C0401C0828D1D383
:1004B0001460B1F800C0BCF1FF0F34DD54680020B7
:1004C0002EE000F1080C4FF0010808FA0CF3B1F827
:1004D00000C00CEA03069E4221D183004FF00F0CAE
:1004E0000CFA03F7BC4305FA03FC4CEA040491F848
:1004F00003C0BCF1280F05D100F1080C08FA0CF874
:10050000C2F8148091F803C0BCF1480F07D100F184
:10051000080C4FF0010808FA0CF8C2F81080401CD3
:100520000828CED35460BDE8F08121B1028842F49E
:100530008062028004E002884FF6FF331A40028096
:10054000704770B502460024002500230020958ADC
:10055000138B1B0445EA030626F07F4404EA0106D8
:100560008E4201D1012000E0002070BD21B102883F
:1005700042F00102028004E002884FF6FE731A4046
:100580000280704721B1028842F48072028004E048
:1005900002884FF6FF631A400280704721B102883B
:1005A00042F40072028004E002884FF6FF531A40C2
:1005B000028070472DE9F04385B004460D460026C1
:1005C000B1460427DFF8CC80A6884FF6C0700640FD
:1005D000684600F091F8DDF808802F48B8FBF0F08D
:1005E0001FFA80F946EA0906A68020884FF6FE71B8
:1005F0000840208000262949286888420CD82868AD
:100600004000B8FBF0F087B2042F00DA04273E4325
:1006100009F10100208427E0E8884BF6FF71884249
:1006200006D1286800EB4000B8FBF0F087B209E083
:10063000286800EBC00101EB0010B8FBF0F087B2B6
:1006400047F48047C7F30B0008B947F0010747F4A8
:10065000004006434FF4967009FB00F04FF47A71A6
:1006600090FBF1F0401C2084A683208840F001001C
:10067000208026884FF6F5300640A888698908430F
:1006800006432680A88929890843208105B0BDE852
:10069000F083000000127A0040420F00A0860100A3
:1006A00012B141F0010102E04FF6FE7319400182E0
:1006B000704700BFFEE7704729B1064AD26902437E
:1006C000044BDA6104E0034AD2698243014BDA61E8
:1006D000704700000010024029B1064A92690243A7
:1006E000044B9A6104E0034A92698243014B9A6188
:1006F000704700000010024030B5002100220024A5
:1007000000232D4D6D6805F00C0121B1042905D0A1
:10071000082923D105E0294D056022E0274D056019
:100720001FE0254D6D6805F47012234D6D6805F4CA
:100730008034022505EB92421CB9214D55430560DA
:100740000BE01D4D6D6805F400351DB11C4D554382
:10075000056002E0194D5543056002E0174D056044
:1007600000BF00BF144D6D6805F0F0010909154D7B
:100770006B5C0568DD4045600F4D6D6805F4E06118
:10078000090A104D6B5C4568DD4085600A4D6D6857
:1007900005F46051C90A0B4D6B5C4568DD40C560CE
:1007A000054D6D6805F44041890B074D6B5CC568CC
:1007B000B5FBF3F5056130BD0010024000127A0070
:1007C00000093D001400002024000020704710B5EF
:1007D00000F002F810BD00000CB500200190009060
:1007E0003348006840F480303149086000BF304829
:1007F000006800F4003000900198401C01900098BF
:1008000018B90198B0F5A06FF1D12948006800F43B
:10081000003010B10120009001E00020009000980D
:10082000012843D12348006840F0100021490860A6
:100830000846006820F0030008600846006840F0A1
:10084000020008601A484068194948600846406834
:1008500048600846406840F4806048600846406848
:1008600020F47C1048600846406840F4E810486076
:100870000846006840F08070086000BF0C480068BF
:1008800000F000700028F9D00948406820F003000B
:10089000074948600846406840F00200486000BFD1
:1008A0000348406800F00C000828F9D10CBD000096
:1008B000001002400020024010B502F099FE04F042
:1008C0009BF902F0B7FE10BD10B5002100200022F8
:1008D000214B5B6803F00C0121B1042906D00829E3
:1008E00028D107E01D4B1E4C236027E01B4B1C4CFE
:1008F000236023E0184B5B6803F47010164B5B68B1
:1009000003F48032022303EB904022B9154B43439A
:10091000134C23600DE0104B5B6803F4003323B1EC
:10092000104B43430E4C236003E00C4B43430C4CF1
:10093000236003E0094B0A4C236000BF00BF064B55
:100940005B68C3F30313084CE15C054B1B68CB40A9
:10095000034C236010BD00000010024000127A001A
:100960000000002000093D000400002010B51348DD
:10097000006840F0010011490860084640681049CD
:1009800008400E494860084600680E4908400B4977
:1009900008600846006820F4802008600846406827
:1009A00020F4FE0048604FF41F008860FFF70FFF3F
:1009B0004FF000600449086010BD000000100240C4
:1009C0000000FFF8FFFFF6FE08ED00E010B540F272
:1009D0002551054800F025F820B140F22551024884
:1009E00000F004F810BD00000038014010B50022EE
:1009F000002340F66A14A14200D100BF0A1201246C
:100A00009440A3B2DC43048010BD21B1828942F43A
:100A10000052828104E082894DF6FF731A40828180
:100A2000704770B50246002400230025002040F6E0
:100A30006A16B14200D100BFC1F3421501F01F0395
:100A4000012606FA03F3012D02D19689334006E010
:100A5000022D02D1168A334001E0968A33400C12EF
:100A6000012606FA04F41688344013B10CB10120B3
:100A700000E0002070BD00002DE9F04786B005467B
:100A80000E460024A24600BFA1460027B08900B14F
:100A900000BF2F462C8A4CF6FF700440F0880443B8
:100AA0002C82AC894EF6F3100440B088318908439B
:100AB000718908430443AC81AC8A4FF6FF4004407F
:100AC000B0890443AC8201A8FFF716FE1F48874295
:100AD00002D1DDF810A001E0DDF80CA0A88900F437
:100AE000004040B10AEBCA0000EB0A10316849002F
:100AF000B0FBF1F807E00AEBCA0000EB0A1031681E
:100B00008900B0FBF1F86420B8FBF0F00401200983
:100B1000642101FB1089A88900F4004040B1322013
:100B200000EBC900B0FBF1F000F00700044308E05F
:100B3000322000EB09106421B0FBF1F000F00F004F
:100B400004432C8106B0BDE8F08700000038014066
:100B500000BFFEE70146481EB0F1807F01D30120AF
:100B60007047481E4FF0E0225061FF20044A107089
:100B700000204FF0E0229061072010610020EFE795
:100B800023ED00E00FB4054B10B503A9044A029809
:100B900000F094F810BC5DF814FB0000011D000883
:100BA00030010020014609B900207047C8B220B1C9
:100BB000C8B20E4A105C401CF7E701F47F4028B130
:100BC0000A48C1F30722805C0930EEE701F47F0098
:100BD00028B10648C1F30742805C1130E5E70348BD
:100BE00000EB116000781930DFE70000435900087E
:100BF00002E008C8121F08C1002AFAD170477047E6
:100C0000002001E001C1121F002AFBD17047000043
:100C100003490868884201D0012070470020FCE7A2
:100C2000DC0000202DE9F04389B0054689461746CF
:100C300000242DB94FF49B721C491DA002F0BEF98F
:100C40002FB940F2371219491AA002F0B7F900E0A3
:100C5000641C285D202804D0285D092801D04C455B
:100C6000F6D324B94FF0FF3009B0BDE8F083214638
:100C7000284601F011FF064616B94FF0FF30F3E7A2
:100C8000202101A8FFF7E1FA01AA4946284601F010
:100C900073FF8046B8F1000F02D14FF0FF30E3E759
:100CA00001A94046B04738600020DDE76A5C0008D3
:100CB000636D640072657470000000002DE9FF4FE1
:100CC0008DB00F460546002606E025280BD0DDE94D
:100CD0000F1290476D1C761C28780028F5D111B0B2
:100CE0003046BDE8F08F0024A246A1460122EC491F
:100CF00000E0044315F8013F203B02FA03F00842EC
:100D0000F7D128782A2810D06FF02F022878A0F188
:100D10003001092914D80AEB8A0102EB410144F0A1
:100D2000020400EB010A6D1CF0E701CF5FEA000A44
:100D300003D544F40054CAF1000A44F002046D1CC7
:100D400028782E2817D115F8010F44F004042A281A
:100D50000ED06FF02F022878A0F1300109290AD8AF
:100D600009EB890102EB410100EB01096D1CF2E77F
:100D700057F8049B6D1C28786C280FD006DC4C2893
:100D800017D068280DD06A2814D104E0742810D038
:100D90007A280FD10DE044F400140AE044F48014E2
:100DA00001E044F440146978814202D104F58014D2
:100DB0006D1C6D1C2A786E2A1FD00CDC632A31D082
:100DC00004DC002A8BD0582A11D1A3E0642A68D011
:100DD000692A0CD165E0732A2ED004DC6F2A73D007
:100DE000702A04D19BE0752A6FD0782A6ED0104605
:100DF000DDE90F129047761C50E1C4F3025002283F
:100E000006D0032809D0042801CF09D0066045E1A7
:100E100001CFF117C0E9006140E101CF06803DE15B
:100E200006703BE117F8040B8DF8000000208DF8E8
:100E30000100EB46012003E057F804BB4FF0FF3000
:100E400061074FF0000102D40DE008F1010188466E
:100E500049450FDA8045F8DB1BF808100029F4D16A
:100E600008E008F1010188468142FADB1BF808100E
:100E70000029F6D1DDE90F23AAEB080081462146BF
:100E800000F036F9304400EB080604E0DDE90F120B
:100E90001BF8010B9047B8F10108F7D221464846EC
:100EA000F7E00A21C4F302534FF0000B0891022B24
:100EB00004D001CFC117032B09D00AE0FF1D27F092
:100EC0000707F7E8020108E032E01FE020E000B287
:100ED000C117042B01D140B2C117031E71F10003E9
:100EE00007DA4FF0000CD0EB0C006CEB01012D2366
:100EF00002E0230504D52B238DF82430012303E0E1
:100F0000E30701D02023F7E7984658E00A2110E0D4
:100F100010210EE010204FF0000B08900CE0102183
:100F20004FF0000B44F004044FF00809089103E06F
:100F300008214FF0000B0891C4F30253022B04D098
:100F400001CF0021032B06D006E0FF1D27F0070785
:100F5000F7E8020103E080B2042B00D1C0B24FF0E9
:100F6000000823072BD5702A07D0DDF820C08CF0AD
:100F7000100C5CEA0B0C05D00EE040238DF82430F9
:100F8000012308E050EA010306D030238DF8243015
:100F90008DF8252002239846DDF820C08CF0080C3F
:100FA0005CEA0B0C0BD150EA010301D1630706D5B3
:100FB00030238DF824304FF00108A9F10109582A97
:100FC00004D038A20B9208AA0A920BE03AA2F9E7E1
:100FD0005B46089AFFF788F90B9B9B5C0A9A521EA6
:100FE0000A92137050EA0102F2D10A98ADEB0000A8
:100FF00000F1200B600702D524F4803401E04FF0AB
:101000000109D94502DDA9EB0B0000E0002000EB4F
:101010000B0141440890AAEB010AE00306D4DDE984
:101020000F232146504600F063F806444FF00009B4
:1010300008E009A911F80900DDE90F12904709F14C
:101040000109761CC145F4DBE0030CD5DDE90F2373
:101050002146504600F04CF8064404E0DDE90F124A
:1010600030209047761C0899481E08900029F5DC2E
:1010700008E00A980A990078491C0A91DDE90F12E4
:101080009047761CBBF10001ABF1010BF1DC21466E
:101090005046DDE90F2300F019F806446D1C1BE6ED
:1010A000092801003031323334353637383961623E
:1010B0006364656600000000303132333435363702
:1010C0003839414243444546000000002DE9F041D3
:1010D000044600251E461746880404D405E0394618
:1010E0002020B0476D1C641EF9D52846BDE8F0816C
:1010F0002DE9F041044600251E469046C80301D55F
:10110000302700E02027880404D505E04146384612
:10111000B0476D1C641EF9D52846BDE8F08100007B
:101120002DE9FC5F04468B4616461F46DDE90C9A06
:10113000DDE90E5804F11C004060006000BFA662AB
:10114000E762C4F83090C4F834A02321D4E90C023B
:1011500002F0C3FCD4E90C3C63441A1F174BD4E9DA
:101160000A0102F01FFA6062202D04DB9622144966
:1011700014A001F023FF3834A57165710020A06030
:10118000C4F81480C4F81880206020712065606560
:10119000383C00902346144A2146019004F1540043
:1011A00003F062FE00BF1148006818B120460F49E5
:1011B0000968884700BF0020BDE8FC9FD5450008AE
:1011C000555B00087072696F72697479203C205217
:1011D000545F5448524541445F5052494F5249541C
:1011E000595F4D41580000009D4A0008F000002062
:1011F0002DE9F04704460E4617469846DDF8209044
:1012000084F81190607C20F0010060746662A7622F
:1012100000202063C4F82C80002506E004F11C01A6
:1012200001EBC50002F087FA6D1C012DF6DBBDE86D
:10123000F08710B50246002001460EE002F11C03C3
:1012400003EBC100D0E900436360D0E900342360C0
:101250004060006000BF481C01460129EEDB10BD64
:1012600010B520A002F04CFA2148017821A002F02C
:1012700047FA1F48007800F0010010B123A002F0E7
:101280003FFA1B48007800F0020010B122A002F0E3
:1012900037FA1748007800F0040010B121A002F0DE
:1012A0002FFA1348007800F0080010B121A002F0D6
:1012B00027FA0F48007800F0100010B120A002F0CB
:1012C0001FFA0B48007800F0800030B108480F305A
:1012D00001681DA002F014FA02E01FA002F010FA4B
:1012E00010BD0000627573206661756C743A0A0067
:1012F00029ED00E05343425F434653525F42465359
:10130000523A307825303258200000004942555377
:101310004552522000000000505245434953455267
:1013200052200000494D50524543495345525220E6
:1013300000000000554E53544B455252200000000F
:1013400053544B45525220005343422D3E42464196
:10135000523A253038580A000A00000010B502A0A1
:1013600002F0CEF9002010BD1B5B324A1B5B480027
:1013700070B504460D4600F083FF002070BD70B5C7
:1013800004460D4601F0DCF8002070BD7FB505462F
:10139000012203A9284600F0D5F8691CC8B2012231
:1013A00002A900F0CFF8A91CC8B2012201A900F0DF
:1013B000C9F8E91CC8B20122694600F0C3F8032D40
:1013C00001D1002402E0092D00D101249DF80C0078
:1013D000801104EB44011B4A02EB410108719DF8A6
:1013E0000C000007000D04EB440122F8110004EB8F
:1013F0004400114631F810009DF80810084304EB32
:10140000440122F811009DF804000007000D04EBD0
:10141000440102EB4101488004EB4400114601EB1A
:10142000400040889DF80010084304EB440102EBA3
:101430004101488004EB4400114601EB400004B038
:1014400070BD00003401002008B501210420FFF721
:1014500043F910208DF803000120ADF800000320AF
:101460008DF8020069460248FEF7D4FF08BD00006F
:101470000008014008B50020009029490870FFF7D6
:10148000E3FF00F0ABF894224FF4C871254800F058
:10149000A9FC0A20009001226946912000F0CCF8B6
:1014A0001920009001226946922000F0C5F801221F
:1014B0006946932000F0C0F801226946942000F0AC
:1014C000BBF801226946952000F0B6F83220009062
:1014D00001226946962000F0AFF816200090012204
:1014E0006946802000F0A8F80C200090012269468F
:1014F000882000F0A1F80020009001226946A42075
:1015000000F09AF8002000900122694600F094F85B
:1015100001200349087004A0FFF734FB08BD000058
:1015200028000020005400404654363233362063F1
:101530006F6E6669677572656420646F6E652E0AEA
:1015400000000000F7B50D46164600244FF6FF7167
:10155000214800F097FC0446012C00D0FEBD4FF658
:10156000FF73702200211C4800F0EEFC012C00D01B
:10157000F4E74FF6FF7301226946174800F026FD95
:10158000012C00D0EAE7144800F0AAFC4FF6FF71E6
:10159000114800F077FC012C00D0DFE74FF6FF7315
:1015A000702201210C4800F0CFFC012C00D0D5E7BF
:1015B0004FF6FF7301222946074800F099FC012CE1
:1015C00000D0CBE700210448FEF7AFFF024800F04F
:1015D00087FC00BFC2E700000054004010B50A4875
:1015E000006840F0010008490860322003F002F969
:1015F0000548001F006840F001000349091F08600A
:10160000322003F0F7F810BD1408014010B5002493
:101610000320FFF7BBFE03484288018802A0FFF7C2
:10162000B1FA10BD3401002078203A2025642079D9
:10163000203A202564200A00F7B50D4616460024FE
:101640004FF6FF71144800F01DFC0446012C00D039
:10165000FEBD4FF6FF73702200210F4800F074FCAE
:10166000012C00D0F4E74FF6FF73012269460A48C7
:1016700000F0ACFC012C00D0EAE74FF6FF733246D5
:101680002946054800F0A2FC012C00D0E0E7024802
:1016900000F026FC00BFDBE70054004010B5144802
:1016A000006890F82900C0F3400020B900201149DB
:1016B0000870084610BD1048006838B180220E48F6
:1016C00001680C48FEF7D8FD0A48F3E701F052FA2A
:1016D00020B10AA10748FEF7EFFD03E009A1054884
:1016E000FEF7EAFD0AA10348FEF7BAFD0148E1E76B
:1016F00028010020982C00202C01002054726973CE
:101700007520000054726973755F66696E20000071
:101710003E00000010B501F01BFE10BD10B50446E0
:101720000948006820B9A422084909A001F046FC34
:101730000548006890F8290064F3410002490968EF
:1017400081F8290010BD0000280100208E5C0008EF
:101750007368656C6C20213D2052545F4E554C4C93
:1017600000000000024A1060024A11607047000049
:10177000180100201C0100207CB5002517491848DD
:10178000FFF7F0FF40F68421012001F051FC1549DC
:1017900008600846006820B913A001F0B1FF681E78
:1017A0007CBD0A2015214FF480630022CDE9001092
:1017B000134914A002F0E5FE044600231A4613A1C3
:1017C0000848006802F018FC0120FFF7A7FF1CB1D1
:1017D00015B9204603F0AEF80020E1E748620008A2
:1017E00058610008280100206E6F206D656D6F72D2
:1017F0007920666F72207368656C6C0A00000000C7
:1018000015180008747368656C6C00007368727852
:1018100000000000FE48006890F8290020F0010058
:10182000401CFB49096881F82900FFF737FF05468E
:1018300001F066FF5EE2FFF76DFF0446002C00DA60
:1018400058E21B2C05D10120F149096881F82800D4
:1018500050E2EF48006890F8280001280DD15B2C79
:1018600005D10220EA49096881F8280042E20020F7
:10187000E749096881F82800BEE0E548006890F86B
:1018800028000228F8D10020E149096881F82800E1
:10189000412C36D1DE480068408D002807DDDC4849
:1018A0000068408D401EDA490968488504E0002040
:1018B000D749096848851DE2D5480068408D00EB8E
:1018C0008002D34800682E3000EB02115022D0482D
:1018D000006800F62E20FEF79FFCCD48006800F659
:1018E0002E20FEF7D5FC80B2C9490968A1F87E0A0E
:1018F000C7490968A1F8800AC548006803F0F0FDEF
:10190000F8E1422C42D1C2480068418DC0480068CD
:10191000808D401E814207DABD480068408D401C22
:10192000BB49096848850CE0B9480068808D38B12A
:10193000B7480068808D401EB5490968488500E0B9
:10194000D8E1B3480068408D00EB8002B0480068E1
:101950002E3000EB02115022AD48006800F62E2018
:10196000FEF75AFCAA48006800F62E20FEF790FC0D
:1019700080B2A7490968A1F87E0AA5490968A1F8BB
:10198000800AA348006803F0ABFDB3E1442C11D1F9
:101990009F480068B0F8800A58B19EA001F0B0FEE0
:1019A0009B480068B0F8800A401E99490968A1F870
:1019B000800A9FE1432C1FD195480068B0F8800A47
:1019C00093490968B1F87E1A884214DA9048006891
:1019D000B0F8802A8E48006800F62E20815C8EA028
:1019E00001F08EFE8A480068B0F8800A401C8849E1
:1019F0000968A1F8800A7DE10CB1FF2C00D179E1E2
:101A0000092C21D1002503E082A001F079FE6D1C94
:101A10007F480068B0F8800AA842F5DC7C4800687E
:101A200000F62E2003F040FD7948006800F62E20D5
:101A3000FEF72EFC80B276490968A1F87E0A744947
:101A40000968A1F8800A55E17F2C01D0082C74D1D7
:101A50006F480068B0F8800A00B94BE16C48006834
:101A6000B0F87E0A401E6A490968A1F87E0A6848F3
:101A70000068B0F8800A401E65490968A1F8800A2C
:101A800063480068B0F87E0A61490968B1F8801AB5
:101A9000884243DD5E4B1B68B3F87E3A5C4E366885
:101AA000B6F8806A9A1B5A4B1B68B3F8803A5B1CE5
:101AB000574E366806F62E269919554B1B68B3F813
:101AC000806A534B1B6803F62E23F01801F0E4FFE5
:101AD00000214F480068B0F87E2A4D48006800F6A3
:101AE0002E2081544A480068B0F8802A484800688F
:101AF00000F62E20111849A001F002FE44480068AB
:101B0000B0F8805A03E043A001F0FAFD6D1C404894
:101B10000068B0F87E0AA842F5DA0CE041A001F0B6
:101B2000EFFD00213A480068B0F87E2A3848006886
:101B300000F62E208154DDE0FFE70D2C01D00A2CA9
:101B400031D13348006803F0E3FC01F013F80128B9
:101B500013D12F48006890F8290000F0010010B15F
:101B600031A001F0CDFD2A480068B0F87E1A28485F
:101B7000006800F62E2000F059FFFFF78FFD0546A4
:101B800001F0BEFD50212248006800F62E20FEF72D
:101B90005CFB00201E490968A1F87E0A1C490968FF
:101BA000A1F8800AA6E01A480068B0F87E0A50281A
:101BB00004DB002016490968A1F87E0A1448006871
:101BC000B0F8800A12490968B1F87E1A884259DAD9
:101BD0000F4B1B68B3F87E3A0D4E3668B6F8806A34
:101BE0009A1B0B4B1B68B3F8806A094B1B6803F602
:101BF0002E23F118064B1B68B3F8803A5B1C044E89
:101C0000366806F62E26981901F046FF00480DE0CA
:101C1000280100200800000025630000082573202B
:101C200020080000082008000A0000000068B0F842
:101C3000802A3148006800F62E2084542E4800681F
:101C400090F8290000F0010058B12B480068B0F866
:101C5000802A2948006800F62E20111827A001F0DC
:101C60004FFD25480068B0F8805A04E0AFF25C00F0
:101C700001F046FD6D1C20480068B0F87E0AA842BD
:101C8000F4DC14E01C480068B0F87E2A1A480068AA
:101C900000F62E2084541848006890F8290000F0BF
:101CA000010020B12146AFF2900001F029FD00248F
:101CB00011480068B0F87E0A401C0F490968A1F875
:101CC0007E0A0D480068B0F8800A401C0A4909687D
:101CD000A1F8800A08480068B0F87E0A502808DB9E
:101CE000002005490968A1F87E0A03490968A1F89E
:101CF000800A00BF9FE50000280100202573000036
:101D000000B502460B460A2A02D10D2000F0BAFFA8
:101D1000D0B200F0B7FF104600BD000010B5144867
:101D2000006800F0020010B112A001F0E9FC1048B8
:101D3000006800F0804088B10D48C01E007808B1EE
:101D4000FFF78EFA0A48001F007808B100F0AAFDDC
:101D50000748801E008808B103F082FC0448006830
:101D600000F0004010B109A001F0CAFC10BD000055
:101D70002CED00E06661696C656420766563746FC4
:101D8000722066657463680A00000000646562750D
:101D900067206576656E740A0000000010B502A029
:101DA00001F0AEFC002010BD48656C6C6F205254F1
:101DB0002D546872656164210A0000002DE9F0412C
:101DC00006460F461446002500BF39463046FEF74A
:101DD000B8FB0546601E041E01D0012DF5D1284632
:101DE000BDE8F08170B506460C461546B4F5C87FCF
:101DF00003DD1BA0FEF7C6FE70BD01214805FEF7FE
:101E00005BFC01210820FEF767FC00201849888050
:101E100018480088604308604FF4806048814BF6A2
:101E2000FF70C8804FF480408881084605813046A5
:101E3000FEF7C0FB01213046FEF798FB0E480088F4
:101E400040F080000C49088018200C49C870C02060
:101E50000880032088700A48FEF7DCFA00BFCBE751
:101E600069326320636C6B206572726F720A0000C6
:101E7000400100202E000020005400402A000020D5
:101E8000000C014070B506460C4600250121304685
:101E9000FEF778FB224607493046FFF78FFF0546DD
:101EA000012D05D004A0FEF76DFE304600F018F8B5
:101EB000284670BD010003004932432067656E6506
:101EC0007261746520737461727420636F6E6469EB
:101ED00074696F6E206572726F722E0A00000000C6
:101EE00010B5044601212046FEF758FB10BD000046
:101EF0002DE9F04706460C4615461F464FF00008F0
:101F00004FF0050AA14615B90020BDE8F08700BFD3
:101F10003A460C493046FFF751FF8046B8F1010FB1
:101F200006D03046FFF7DCFFFF2020704046ECE78C
:101F3000308A207009F10109681E051EE8D140466B
:101F4000E3E70000400003002DE9F04780460C461F
:101F500015461E4600274FF00509E2B229464046C5
:101F6000FEF79EFB34B932460C494046FFF726FF88
:101F7000074605E032460A494046FFF71FFF07467D
:101F8000012F09D0294607A0FEF7FCFD4046FFF7C8
:101F9000A7FF3846BDE8F0873846FBE78200070018
:101FA000020003004932432073656E642037626982
:101FB000742061646472657373206572726F722E2F
:101FC0002028307825303278290A00002DE9F047A2
:101FD00006460F46144698460025B94614B9002017
:101FE000BDE8F08700BF99F80000308242460B49F7
:101FF0003046FFF7E3FE0546012D04D03046FFF7DB
:102000006FFF2846ECE7012D03D1012C01D009F127
:102010000109601E041EE6D12846E1E780000700A2
:1020200010B50DA001F06CFB104804680DE0022211
:102030000FA12068FEF749F900B905E00DA0D4E929
:10204000001201F05DFB00BF0C340E4800688442B2
:10205000EDD3002010BD00002D2D46756E63746910
:102060006F6E204C6973743A0A000000180100205A
:102070005F5F0000252D313673202D2D2025730A3A
:10208000000000001C0100202DE9F04F8FB0002758
:102090000FF2C009082302AA04210AA800F096F84A
:1020A0004FF010084A4641462CA001F029FB40465B
:1020B00000F0F6FD32A001F023FB00BF0AA938466C
:1020C00000F099F8074600253BE002A850F82500EB
:1020D000A0F11406FEF726F88346307C20F080003D
:1020E0009DF83010884203D05846FEF71FF827E0CD
:1020F0005846FEF71BF8344604F11C0001F04AFB79
:10210000A8B904F11C0001F04DFB8246606A234629
:1021100010224146CDE9000A21A001F0F1FA04F1B4
:102120001C0003F061FA15A001F0EAFA07E0606A0A
:1021300023461022414600901FA001F0E1FA00BFA3
:102140006D1C0E98A842C0DC002FB7D100200FB044
:10215000BDE8F08F6576656E74000000252D2A2E8F
:102160007320202020202073657420202020737588
:102170007370656E64207468726561640A000000A3
:1021800020202D2D2D2D2D2D2D2D2D2D202D2D2DA6
:102190002D2D2D2D2D2D2D2D2D2D2D0A0000000046
:1021A000252D2A2E2A7320203078253038782025B6
:1021B0003033643A00000000252D2A2E2A73202097
:1021C00030782530387820300A0000002DE9F047BB
:1021D00004460D4616461F46284601F097FD8146E7
:1021E00009F10408C4F8008025726660E7600020E9
:1021F0002061BDE8F0872DE9F84F07460C464FF007
:10220000000A00202061E06808B1207A10B900209F
:10221000BDE8F88FD4F800801FB945464FF0010A99
:1022200000E03D46FDF77EFF0090BAF1000F0ED1B1
:10223000A5F1140B9BF8100020F08000217A884251
:1022400004D00098FDF772FF0020E1E700BF0026F0
:10225000D4F804900BE02D68454501D1002507E036
:10226000761C49F8045BE068B04200D100E0F2E778
:1022700000BF0098FDF75AFF26612846C8E7000016
:1022800010B50848016808A001F03AFA0B48016847
:102290000BA001F035FA0F4801680FA001F030FAE9
:1022A00010BD00005C000020746F74616C206D65CF
:1022B0006D6F72793A2025640A00000060000020EA
:1022C00075736564206D656D6F7279203A202564A1
:1022D0000A000000640000206D6178696D756D2052
:1022E000616C6C6F6361746564206D656D6F72798C
:1022F0003A2025640A0000002DE9F04F91B0002734
:102300000FF2A009082304AA03210CA8FFF75EFF1F
:102310004FF010084A46414624A001F0F1F940462A
:1023200000F0BEFC2AA001F0EBF900BF0CA9384672
:10233000FFF761FF074600262AE004A850F82600B0
:10234000A0F11404FDF7EEFE8346207C20F080000F
:102350009DF83810884203D05846FDF7E7FE16E096
:102360005846FDF7E3FE254605F11C0001F01AFA78
:10237000824695F827001022A96A2B46CDE9020A69
:10238000CDE9002141461AA001F0BAF900BF761C40
:102390001098B042D1DC002FC8D1002011B0BDE8A8
:1023A000F08F00006D75746578000000252D2A2ED1
:1023B000732020206F776E65722020686F6C642018
:1023C00073757370656E64207468726561640A0069
:1023D000202D2D2D2D2D2D2D2D202D2D2D2D202D54
:1023E0002D2D2D2D2D2D2D2D2D2D2D2D2D0A00009A
:1023F000252D2A2E2A7320252D382E2A73202530AC
:1024000034642025640A00002DE9F04F8FB00027C6
:102410000FF2CC09082302AA02210AA8FFF7D6FE70
:102420004FF010084A46414630A001F069F9404695
:1024300000F036FC34A001F063F900BF0AA9384669
:10244000FFF7D9FE0746002541E002A850F8250015
:10245000A0F11406FDF766FE8346307C20F0800074
:102460009DF83010884203D05846FDF75FFE2DE0FE
:102470005846FDF75BFE344604F11C0001F08AF972
:10248000A8B904F11C0001F08DF98246A08C234606
:1024900010224146CDE9000A21A001F031F904F1F2
:1024A0001C0003F0A1F817A001F02AF90DE004F1D7
:1024B0001C0001F077F98246A08C23461022414689
:1024C000CDE9000A1AA001F01BF900BF6D1C0E989F
:1024D000A842BADC002FB1D100200FB0BDE8F08FC8
:1024E00073656D6170686F7265000000252D2A2E7E
:1024F00073207620202073757370656E6420746875
:10250000726561640A000000202D2D2D202D2D2DD7
:102510002D2D2D2D2D2D2D2D2D2D2D0A00000000C2
:10252000252D2A2E2A7320253033642025643A0075
:10253000252D2A2E2A7320253033642025640A0095
:102540002DE9F04FB5B04FF000090FF21C1B082326
:1025500027AA01212FA8FFF739FE4FF0100A5A468B
:102560005146434801F0CCF8504600F099FB41A099
:1025700001F0C6F800BF2FA94846FFF73CFE814690
:102580004FF0000865E027A850F82800A0F11405D6
:10259000FDF7C8FD3490287C20F080009DF8C41021
:1025A000884203D03498FDF7C1FD50E090222946BF
:1025B00003A8FDF731FE3498FDF7B8FD2C4694F8DA
:1025C0003D0023461022514600903AA001F098F8B1
:1025D00094F83C0000F00F06012E03D138A001F062
:1025E0008FF815E0022E03D138A001F089F80FE032
:1025F0001EB939A001F084F80AE0042E03D139A0F5
:1026000001F07EF804E0032E02D139A001F078F841
:10261000276B00E07F1C38782328FBD0D4E90C100E
:10262000791A401A64214843616BB0FBF1F00290C3
:10263000A16B206DCDE90001636A206BC01A636B4A
:10264000C1181A462DA0029B01F05AF800BF08F1EC
:1026500001083398404596DCB9F1000F8BD100207A
:1026600035B0BDE8F08F00007468726561640000E9
:10267000405E0008202D2D2D20202D2D2D2D2D2DBF
:102680002D202D2D2D2D2D2D2D2D2D2D202D2D2D94
:102690002D2D2D2D2D2D2D20202D2D2D2D2D2D2091
:1026A000202D2D2D2D2D2D2D2D2D2D202D2D2D0A97
:1026B00000000000252D2A2E2A73202533642000D7
:1026C000207265616479202000000000207375731A
:1026D00070656E640000000020696E69742020201F
:1026E0000000000020636C6F736520200000000074
:1026F0002072756E6E696E670000000020307825CC
:102700003038782030782530387820202020253047
:102710003264252520202030782530387820253057
:1027200033640A002DE9F04790B000270FF2B40996
:10273000082303AA0A210BA8FFF748FD4FF0100851
:102740004A46414629A000F0DBFF404600F0A8FAC7
:1027500030A000F0D5FF00BF0BA93846FFF74BFDB6
:10276000074600262DE003A850F82600A0F1140427
:10277000FDF7D8FC8246207C20F080009DF83410C4
:10278000884203D05046FDF7D1FC19E05046FDF7D2
:10279000CDFC2546D5E90B012B461022CDE90001E1
:1027A000414625A000F0ACFF687C00F0010018B1A4
:1027B00027A000F0A5FF02E028A000F0A1FF00BFC5
:1027C000761C0F98B042CEDC002FC5D102F00EFA75
:1027D0000446214625A000F093FF002010B0BDE87C
:1027E000F087000074696D6572000000252D2A2EA7
:1027F000732020706572696F64696320202074699A
:102800006D656F757420202020202020666C616724
:102810000A000000202D2D2D2D2D2D2D2D2D2D20AC
:102820002D2D2D2D2D2D2D2D2D2D202D2D2D2D2DE5
:102830002D2D2D2D2D2D0A00252D2A2E2A732030E9
:10284000782530387820307825303878200000001E
:102850006163746976617465640A0000646561632C
:10286000746976617465640A0000000063757272B1
:10287000656E74207469636B3A3078253038780A55
:1028800000000000FEF7F6FD04E0FEF7BFFE642046
:1028900001F0B0FFF9E710B5044600F0E9FBFFF7DF
:1028A000F1FF10BD10B51CA000F02AFF1F480178F1
:1028B0001FA000F025FF1D48007800F0010010B1B6
:1028C00021A000F01DFF1948007800F0020010B1AF
:1028D00020A000F015FF1548007800F0080010B1A6
:1028E0001FA000F00DFF1148007800F0100010B19B
:1028F0001EA000F005FF0D48007800F0800030B108
:102900000A480C3001681CA000F0FAFE02E01EA08C
:1029100000F0F6FE10BD00006D656D206D616E610A
:102920006765206661756C743A0A000028ED00E066
:102930005343425F434653525F4D4653523A3078B9
:1029400025303258200000004941434356494F4C3E
:10295000200000004441434356494F4C20000000F2
:102960004D554E53544B4552522000004D53544B3D
:1029700045525220000000005343422D3E4D4D4130
:10298000523A253038580A000A0000002DE9F04775
:1029900081460026002799F8000028B90021084642
:1029A00000F0A8F8BDE8F0871B48046827E006227D
:1029B0001AA12068FDF789FC00B11FE0206800F132
:1029C00006084846FDF764FC8246524641464846A2
:1029D000FDF77BFC88B926B947463846FDF758FC19
:1029E00006464146384602F02AFE0546B54200DA60
:1029F0002E4641460BA000F083FE00BF0C340A486F
:102A000000688442D3D327B132463946484601F0A4
:102A1000A4FC00BFC6E70000180100205F5F636DE3
:102A2000645F000025730A001C01002038B50446CD
:102A30000D4601E0641C6D1E20782028FAD0207815
:102A40000928F7D00DB9002038BD6A46294620462E
:102A5000FEF7E8F808B90098F6E7204600E0401CC9
:102A60000178202902D001780029F8D100210170D5
:102A7000214603A000F044FE4FF0FF30E4E70000E1
:102A800025733A20636F6D6D616E64206E6F7420E4
:102A9000666F756E642E0A002DE9F04106460D46FC
:102AA00000271048046815E006220FA12068FDF7F2
:102AB0000CFC00B10DE02168881D2A463146FDF767
:102AC00004FC28B9A81D2168085C08B9A76805E0BE
:102AD00000BF0C34064800688442E5D300BF384686
:102AE000BDE8F081180100205F5F636D645F000046
:102AF0001C01002070B505460E460FA000F000FE38
:102B0000144804680EE0062213A12068FDF7DDFBDF
:102B100000B106E0D4E90002811D11A000F0F0FD33
:102B200000BF0C34114800688442ECD310A000F0C0
:102B3000E7FD002070BD000052542D54687265619D
:102B400064207368656C6C20636F6D6D616E647377
:102B50003A0A0000180100205F5F636D645F0000A7
:102B6000252D313673202D2025730A001C010020ED
:102B70000A000000012070472DE9F04782460E460A
:102B8000904654460025002755E003E000202070C1
:102B9000641C6D1C2078202802D02078092801D1DF
:102BA000B542F3D3082F12D326A000F0A9FD4FF0B1
:102BB000000906E058F829102AA000F0A1FD09F14B
:102BC0000109B945F6D326A000F09AFD35E0B542DB
:102BD00000D332E0207822281CD1641C6D1C48F8F8
:102BE00027407F1C09E020785C2804D160782228E7
:102BF00001D1641C6D1C641C6D1C2078222801D03E
:102C0000B542F0D3B54200D317E000202070641C19
:102C10006D1C10E048F827407F1C01E0641C6D1C0F
:102C20002078202804D02078092801D0B542F5D397
:102C3000B54200D301E0B542A7D300BF3846BDE896
:102C4000F0870000546F6F206D616E7920617267AC
:102C5000732021205765206F6E6C79205573653A7B
:102C60000A0000002573200000BF0548008800F01E
:102C700020000028F9D00248001D0088C0B270472B
:102C80000038014000BF0549098801F040010029D2
:102C9000F9D00249091D0880704700000038014042
:102CA00010B5044602E004A000F02AFD201EA4F1A5
:102CB0000104F8D110BD00002D00000070B50446DD
:102CC00026480068844204D29422254925A000F0B9
:102CD00075F92C480068844204D3952220492AA023
:102CE00000F06CF9608820B196221D4931A000F0F7
:102CF00065F91A49606809684518AC4215D06888BA
:102D000098B92048006885420FD02E480068A84234
:102D100001D12C4804606868606010480068201A7F
:102D20000E4A69681268114488600C49A0680968F5
:102D30004618A64211D0708878B922480068A0428F
:102D400001D1204806606068706004480068301A4D
:102D5000024A616812681144886070BD500000200A
:102D6000655A00082872745F75696E74385F742044
:102D70002A296D656D203E3D20686561705F707425
:102D800072000000540000202872745F75696E7430
:102D9000385F74202A296D656D203C202872745F8D
:102DA00075696E74385F74202A29686561705F6583
:102DB0006E6400006D656D2D3E75736564203D3D4C
:102DC00020300000580000202DE9F04F86B00D465D
:102DD0009C46DDE9106401960F9B04F04008B8F1B1
:102DE000000F02D0DFF8708101E0DFF87081CDF8CC
:102DF000008004F01008B8F1000F01D024F00104A5
:102E000004F00108B8F1000F02D04FF0300801E0E3
:102E10004FF02008C246002704F00208B8F1000F66
:102E200011D0002A02DA2D2752420CE004F00408E7
:102E3000B8F1000F01D02B2705E004F00808B8F125
:102E4000000F00D02027002142B94FF0300B8846F8
:102E5000491C0DF1080909F808B01DE01AE0E14627
:102E6000B9F10A0F08D14FF00A0BB2FBFBFE0BFBC6
:102E70001E28B2FBFBF202E002F00F08120900BFAD
:102E8000DDF8009019F808B08846491C0DF10809D2
:102E900009F808B0002AE2D1B14200DD0E469B1BC2
:102EA00004F01108B8F1000F10D117B1002B00DDAC
:102EB0005B1E06E0A84203D24FF0200880F8008095
:102EC000401CB3F10008A3F10103F3DC27B1A842D1
:102ED00000D207705B1E401C04F01008B8F1000F10
:102EE0000AD104E0A84201D280F800A0401CB3F14E
:102EF0000008A3F10103F5DC06E0A84203D24FF07D
:102F0000300880F80080401CB046761E8845F4DC0E
:102F100008E0A84205D20DF1080818F8018080F8F1
:102F20000080401CB1F10008A1F1010104DDDDF8D1
:102F30000480B8F1000FECD106E0A84203D24FF0B4
:102F4000200880F80080401CB3F10008A3F10103C1
:102F5000F3DC06B0BDE8F08F545A0008435A00086D
:102F600070B504460D4600F011FA70BD1CB5142072
:102F70000A214FF400730022CDE90010074908A090
:102F800001F0FFFA044624B9C622074907A000F061
:102F900015F8204601F0CEFC1CBD00009728000863
:102FA0006D61696E00000000E057000874696420DC
:102FB000213D2052545F4E554C4C0000F8B504465C
:102FC0000D461646002000900A48006858B933465E
:102FD0002A46214608A000F093FB00BF9DF80000A0
:102FE0000028FBD005E0324629462046014B1B68ED
:102FF0009847F8BD44000020282573292061737389
:10300000657274696F6E206661696C6564206174B5
:103010002066756E6374696F6E3A25732C206C6937
:103020006E65206E756D6265723A2564200A000037
:1030300070B504460D4604FB05F000F0CFFB0646D4
:103040002EB104FB05F20021304600F046FD30466B
:1030500070BD000010B5044C02E020688047241DBC
:1030600002488442F9D310BD486100084C61000851
:1030700010B5044C02E020688047241D02488442B9
:10308000F9D310BD4C6100085461000810B5FDF77C
:1030900049F8044604480088401C00B202490880F0
:1030A0002046FDF743F810BDCC00002010B5FDF719
:1030B00039F804460C480088401E00B20A490880CE
:1030C0000846B0F9000000280ADC002008802046ED
:1030D000FDF72CF80548006828B100F0BDFE02E0BD
:1030E0002046FDF723F810BDCC000020D0000020C2
:1030F00070B5054605B970BD00BFFDF713F806466B
:1031000000F092FA48B1404940A000F0F9FA4FF4BB
:1031100007723D4947A0FFF751FF3046FDF706F81B
:1031200000BF05F0030028B140F21E22364942A03C
:10313000FFF744FF4D480068854203D34C480068C0
:10314000854205D340F21F222F494A48FFF736FF38
:1031500000BF4948006818B12846474909688847B0
:1031600000BF42480068854203D341480068854259
:1031700002D300BF00BFBEE7A5F10C0400BF00BF33
:103180004FF0FF313D4800F0B5FF608818B120884E
:10319000B0F5F55F08D03AA000F0B2FA2388628853
:1031A00021463EA000F0ACFA608828B940F23E22E9
:1031B000154946A0FFF702FF2088B0F5F55F05D05E
:1031C00040F23F22104944A0FFF7F8FE0020608043
:1031D0004FF4F550208047480068844201D24548AA
:1031E0000460224960680968611A401A4249096806
:1031F000081A414908602046FFF760FD1F4800F0AB
:1032000031FF00BF77E70000995A000846756E63EA
:1032100074696F6E5B25735D207368616C6C206EE2
:103220006F74206265207573656420696E20495350
:10323000520A00003000000028282872745F756967
:103240006E7433325F7429726D656D2920262028D3
:1032500052545F414C49474E5F53495A45202D20F7
:10326000312929203D3D2030000000005000002081
:1032700054000020585D00084C000020700300201E
:10328000746F2066726565206120626164206461EC
:10329000746120626C6F636B3A0A00006D656D3A71
:1032A000203078253038782C207573656420666C62
:1032B00061673A2025642C206D6167696320636F24
:1032C00064653A203078253034780A006D656D2DBC
:1032D0003E757365640000006D656D2D3E6D616720
:1032E0006963203D3D20484541505F4D414749437A
:1032F00000000000580000206000002000487047D7
:103300009804002000487047982C002070B54FF4B6
:10331000E1310D4802F040FAFDF7D6FA0B4800689B
:103320004FF47A71B0FBF1F42046FDF713FCFFF780
:1033300091FEFFF7E7FF0446FFF7E0FF0546214651
:1033400001F026F870BD00000038014000000020A8
:1033500010B5FFF789FC10BD2DE9F04105460024AA
:1033600000260D27284600F0EFFF064600BF09E0C3
:10337000285D0A2802D13846FFF784FC285DFFF754
:1033800081FC641CB442F3D3BDE8F08101480249DA
:10339000086070470400FA050CED00E070B50546C2
:1033A0002C1D3048006838B128462E4909688847E6
:1033B000064606B970BD00BF2BA0E16B00F0A0F976
:1033C0002DA0216A00F09CF92FA0616A00F098F905
:1033D00031A0A16A00F094F933A0E16A00F090F9FD
:1033E00035A0216800F08CF937A0616800F088F9F9
:1033F00039A0A16800F084F93BA0E16800F080F9F1
:103400003DA0216900F07CF93FA0616900F078F9E6
:1034100041A0A16900F074F943A0E16900F070F9DE
:1034200045A0216B00F06CF947A0616B00F068F9D2
:1034300049A0A16B00F064F9287800F0040048B1BD
:1034400001F030FA0646314647A000F059F9FFF77F
:1034500077F802E04CA000F053F9FEF75FFC00BFE4
:10346000FEE70000140100207073723A20307825C6
:103470003038780A000000007230303A2030782569
:103480003038780A000000007230313A2030782558
:103490003038780A000000007230323A2030782547
:1034A0003038780A000000007230333A2030782536
:1034B0003038780A000000007230343A2030782525
:1034C0003038780A000000007230353A2030782514
:1034D0003038780A000000007230363A2030782503
:1034E0003038780A000000007230373A20307825F2
:1034F0003038780A000000007230383A20307825E1
:103500003038780A000000007230393A20307825CF
:103510003038780A000000007231303A20307825C7
:103520003038780A000000007231313A20307825B6
:103530003038780A000000007231323A20307825A5
:103540003038780A00000000206C723A203078256C
:103550003038780A000000002070633A2030782567
:103560003038780A00000000686172642066617576
:103570006C74206F6E207468726561643A202573E4
:103580000D0A0D0A00000000686172642066617512
:103590006C74206F6E2068616E646C65720D0A0D2C
:1035A0000A000000F0B504460D461646301D20F016
:1035B000070040380146002203E00C4F41F822701A
:1035C000521C102AF9D30D624FF0000CC1F824C030
:1035D000C1F828C0C1F82CC0C1F830C04B638C635F
:1035E0004FF0807CC1F83CC0F0BD0000EFBEADDE06
:1035F00010B500BF00BFFCF795FD044608480078F1
:10360000401C0749087000BF0648006810B1054813
:103610000068804700BF2046FCF788FD10BD000011
:103620003C00002034000020014800787047000072
:103630003C00002010B500BF00BFFCF773FD04463E
:1036400008480078401E0749087000BF0648006817
:1036500010B105480068804700BF2046FCF766FDB2
:1036600010BD00003C0000203800002070B504466A
:103670002068A0F11C0500BF00BF284601F0C4F877
:10368000002070BD2DE9F04105460C4690462046CD
:1036900001F0B2F9B8F1000F03D0B8F1010F23D156
:1036A00005E004F11C01284600F05DF81CE02E68DE
:1036B0000FE0A6F11C0794F83D0097F83D108842F2
:1036C00006DA04F11C0107F11C0000F04CF802E0DE
:1036D0003668AE42EDD100BFAE4204D104F11C0108
:1036E000284600F040F800BF00BF0020BDE8F08190
:1036F000014601F11C004060006000BF00207047DF
:103700000FB438B505A800907F210848009B049AA3
:1037100001F014FD04467F2C00D97F240348FFF7F5
:103720001BFE0020009038BC5DF814FBF002002066
:103730004060006070474060006070470268516000
:1037400002680A6001604860704702685160026860
:103750000A600160486070470268516002680A6050
:103760000160486070474268116042684A60416089
:103770000860704701460868884201D101207047FF
:103780000020FCE701460868884201D1012070470B
:103790000020FCE701460868884201D101207047FB
:1037A0000020FCE7014600200A4601E01268401CA8
:1037B00013688B42FAD17047D0E900215160D0E9FB
:1037C00000121160406000607047D0E90021516034
:1037D000D0E9001211604060006070472DE9F047A9
:1037E000054615B90020BDE8F08700BFFCF79AFC3C
:1037F0008146FFF719FF48B17B497CA0FFF780FFA6
:1038000040F20B12784983A0FFF7D8FB4846FCF73B
:103810008DFC00BFE81C20F00300A84201D000BFCF
:1038200001E000BF00BFE81C20F003057A480068F3
:10383000854203D900BF00BF0020D4E70C2D00D281
:103840000C254FF0FF31754800F054FC74480068B7
:1038500074490968461ABBE0724800688419608898
:1038600000287BD106F10C006168081AA84275D3C4
:1038700006F10C006168091A05F11800814230D385
:1038800006F10C0000EB05086648006800EB08072D
:103890004FF4F55038800020788060687860BE6012
:1038A000C4F80480012060805B48796800680C30AF
:1038B000814205D05B49786809680844C0F80880EF
:1038C0005948016805F10C000844574908605748F9
:1038D00000680968884219D2534800685349086053
:1038E00014E0012060804F4960680968611A401A3D
:1038F0004D49096808444C4908604C48006809680B
:10390000884203D248480068484908604FF4F5509F
:10391000208043480068844224D107E04048006882
:1039200040684049096808443D4908603C480068CF
:10393000408828B13A4800683D4909688842EDD17D
:10394000374800683A49096888420BD03448006813
:10395000408838B140F27512234900E034E035A0C8
:10396000FFF72CFB2D4800F07DFB04F10C002844F0
:103970002F490968884205D940F279121A49374817
:10398000FFF71CFB04F0030028B14FF4BD72164989
:103990003348FFF713FB04F0030028B140F27B1219
:1039A000114930A0FFF70AFB00BF00BF00BF394834
:1039B000006828B1294604F10C00364A1268904785
:1039C00000BF04F10C000EE716480068304446685A
:1039D00011480068401BB0423FF63EAF0F4800F070
:1039E00041FB0020FFE60000845A000846756E6324
:1039F00074696F6E5B25735D207368616C6C206EFB
:103A00006F74206265207573656420696E20495368
:103A1000520A0000300000005C000020700300200B
:103A200058000020500000206000002064000020AA
:103A30005400002028286C66726565203D3D206892
:103A40006561705F656E6429207C7C2028216C662E
:103A50007265652D3E75736564292900B45D0008A3
:103A60000C5D000828282872745F75696E74333203
:103A70005F74296D656D292026202852545F414CC2
:103A800049474E5F53495A45202D20312929203D71
:103A90003D2030004800002070B50C46014623460A
:103AA0008B4210D29D188D420DD91144134405E06C
:103AB0005D1E2B462E784D1E29462E70151EA2F136
:103AC0000102F5D108E003E013F8015B01F8015BA6
:103AD000151EA2F10102F7D170BDF0B50C460546E6
:103AE000E6B2042A15D300F0030797B9014646EA67
:103AF000062343EA034304E008C108C108C108C122
:103B0000103A102AF8D201E008C1121F042AFBD291
:103B10000D4601E005F8016B171EA2F10102F9D173
:103B2000F0BD00002DE9F04706460F4600BFFCF748
:103B3000F9FA8146FFF778FD48B1224922A0FFF744
:103B4000DFFD4FF4AC721F4929A0FFF737FA484652
:103B5000FCF7ECFA00BF304600F0D8F805462DB966
:103B60004FF4AE72174923A0FFF728FAE868FFF771
:103B700035FE044614B90020BDE8F0870021204638
:103B8000EA68FFF7AAFF2674002060741022394605
:103B9000204600F0E2FB00BF1C48006818B1204638
:103BA0001A490968884700BFFCF7BCFA804604F14F
:103BB0001401281DFFF7C2FD4046FCF7B7FA204666
:103BC000DAE70000C15A000846756E6374696F6ECB
:103BD0005B25735D207368616C6C206E6F7420626E
:103BE00065207573656420696E204953520A000090
:103BF00030000000696E666F726D6174696F6E20CF
:103C0000213D2052545F4E554C4C0000B80000201E
:103C100070B504462CB94FF4CB72134913A0FFF7CB
:103C2000CDF9207C00F0800028B140F297120E49B7
:103C300013A0FFF7C3F900BF1C48006818B1204665
:103C40001A490968884700BF00202074FCF76AFA07
:103C5000054604F11400FFF7AFFD2846FCF766FAAD
:103C60002046FFF745FA70BDD45A00086F626A65B6
:103C7000637420213D2052545F4E554C4C0000008F
:103C800021286F626A6563742D3E74797065202601
:103C90002052545F4F626A6563745F436C61737353
:103CA0005F5374617469632900000000BC00002048
:103CB00070B504462CB940F235120D490DA0FFF73E
:103CC0007DF900BF1048006818B120460E49096808
:103CD000884700BF00202074FCF724FA054604F151
:103CE0001400FFF769FD2846FCF720FA70BD0000BC
:103CF000B05A00086F626A65637420213D205254F7
:103D00005F4E554C4C000000BC00002002460021D4
:103D10000AE0074800EB01100078904203D1044804
:103D200000EB01107047491C0529F2DB0020F9E780
:103D30006800002010B504462CB940F2CB120449AB
:103D400004A0FFF73BF9207C20F0800010BD0000AC
:103D5000FF5A00086F626A65637420213D20525447
:103D60005F4E554C4C0000002DE9F04704460E46CE
:103D7000904600273046FFF7C9FF054625B9FB22CC
:103D80001A491BA0FFF71AF9FFF780F96F680AE0DC
:103D9000A7F11409A14505D140F2091213491AA04F
:103DA000FFF70CF93F68281D8742F1D1FFF77EF934
:103DB00046F08000207410224146204600F0CDFAE3
:103DC00000BF1548006818B12046134909688847A4
:103DD00000BFFCF7A7F9824604F11401281DFFF784
:103DE000ADFC5046FCF7A2F9BDE8F087A15A0008E7
:103DF000696E666F726D6174696F6E20213D20522D
:103E0000545F4E554C4C00006F626A20213D206F7C
:103E1000626A656374000000B800002010B50446B3
:103E20002CB94FF4DC72064906A0FFF7C7F8207CD6
:103E300000F0800008B1012010BD0020FCE7000068
:103E4000E55A00086F626A65637420213D20525470
:103E50005F4E554C4C0000002DE9F041FCF762F933
:103E600007461F480088002835D11E480068FCF727
:103E700099FE461E1C4850F83600A0F11C041B4851
:103E80000068844226D01A490E70184805680460FC
:103E900000BF1848006820B121462846154A12681C
:103EA000904700BF00BF00BF1348007850B904F12D
:103EB000240105F12400FCF73CF93846FCF736F9FB
:103EC000BDE8F08100BF00BF04F1240105F124002A
:103ED000FCF72FF900BF3846FCF728F900BFEFE7E1
:103EE000CC000020D800002098030020D000002043
:103EF000D4000020E40000203C00002070B50446FF
:103F00002CB94FF49172144914A0FFF757F8FCF73D
:103F100009F9054614F83C0F20F00F0040F00100AD
:103F2000207062783C3C124B03EBC20004F11C0190
:103F30004268116042684A604160086000BF00BF8B
:103F400000BF0C49206C096808430A4908602846EC
:103F5000FCF7ECF870BD0000215B00087468726526
:103F6000616420213D2052545F4E554C4C000000AE
:103F700098030020D800002070B504462CB94FF4F7
:103F8000A872154915A0FFF719F8FCF7CBF80546FC
:103F900000BF00BF04F11C00D0E900215160D0E94E
:103FA000001211604060006000BF94F83D10104A9C
:103FB00002EBC1000168814201D1012100E0002132
:103FC00029B10C48216C006888430A4908602846DA
:103FD000FCF7ACF870BD00003B5B000874687265CC
:103FE000616420213D2052545F4E554C4C0000002E
:103FF00098030020D80000202DE9F04104460E4629
:1040000015461F4624B9CA220C490DA0FEF7D6FF5B
:10401000B5F5803F04D3CB2208490DA0FEF7CEFFB3
:10402000324602212046FFF79FFE2046FFF760FB45
:10403000A58467740020BDE8F08100000A580008DC
:1040400073656D20213D2052545F4E554C4C00004D
:1040500076616C7565203C203078313030303055D9
:104060000000000070B504462CB940F2B5121A49A0
:104070001AA0FEF7A3FF2046FFF75CFE022805D03A
:104080004FF4DB7214491948FEF798FF00BF184837
:10409000006818B1204616490968884700BF002506
:1040A000FCF740F8064600BF00BF04F11C00FFF714
:1040B00061FB28B904F11C00FFF7D8FA012502E0E2
:1040C000A08C401CA0843046FCF730F8012D01D1B3
:1040D000FFF7C2FE002070BD4C58000873656D20CC
:1040E000213D2052545F4E554C4C0000C45C0008EA
:1040F000C80000202DE9F34105462DB94FF4A47204
:10410000444945A0FEF75AFF2846FFF713FE022850
:1041100005D040F249123F494348FEF74FFF00BF28
:104120004248006818B1284640490968884700BFDE
:10413000FBF7F8FF064600BF00BFA88C002806DD8D
:10414000A88C401EA8843046FBF7F0FF57E001988A
:1041500030B93046FBF7EAFF6FF00100BDE8FC81A3
:1041600000BFFBF7DFFF074600F09CFB48B9294979
:104170002FA0FFF7C5FA40F2691226493AA0FEF7D0
:104180001DFF00BFFBF7CEFF8046FFF74DFA48B199
:10419000204936A0FFF7B4FA40F269121D4932A057
:1041A000FEF70CFF4046FBF7C1FF00BF3846FBF7A8
:1041B000BDFF00BF00F076FB04460020A06300BFF7
:1041C00000BF6A7C214605F11C00FFF75BFA0198ED
:1041D00000280BDD00BF00BF01AA002104F154003C
:1041E00000F07CFD04F1540000F068FE3046FBF75F
:1041F0009DFFFFF731FEA06B08B1A06BAEE700BFDB
:104200002448006818B1284622490968884700BF39
:104210000020A3E74058000873656D20213D20521F
:10422000545F4E554C4C0000C45C0008C000002098
:1042300046756E6374696F6E5B25735D207368618C
:104240006C6C206E6F7420626520757365642062EB
:1042500065666F7265207363686564756C6572204E
:1042600073746172740A00003000000046756E635A
:1042700074696F6E5B25735D207368616C6C206E72
:104280006F74206265207573656420696E204953E0
:10429000520A0000C400002008B509A0FFF730FA58
:1042A0000AA0FFF72DFA12A003230122194600905D
:1042B00012A0FFF725FA19A0FFF722FA08BD0000A7
:1042C0000A205C207C202F0A000000002D20525480
:1042D000202D2020202020546872656164204F70BA
:1042E00065726174696E672053797374656D0A0035
:1042F0004E6F76203230203230323000202F207C3A
:10430000205C202020202025642E25642E2564207A
:104310006275696C642025730A0000002032303019
:1043200036202D203230313920436F707972696721
:1043300068742062792072742D74687265616420DB
:104340007465616D0A00000001460A4600E0521CD7
:1043500010780028FBD1501A704770B50346A2B1FF
:1043600018460C4600BF14F8016B00F8016B3EB90B
:1043700002E0002500F8015B551E2A1EF9D102E07B
:10438000551E2A1EEFD100BF00BF184670BD0000A9
:104390002DE9F04705460E46E81C20F0030726F0FD
:1043A000030800BFFBF7BEFE8146FFF73DF940B1B1
:1043B0002A492BA0FFF7A4F9C522284932A0FEF70D
:1043C000FDFD4846FBF7B2FE00BFB8F1180F09D952
:1043D000A8F11800B84205D3A8EB070018382B49FC
:1043E000086006E03246294629A0FFF789F9BDE8B2
:1043F000F0873648076000BF00BF04684FF4F550EF
:104400002080224800680C3060600020A06060803E
:104410002E496068096808442D4908604FF4F5503A
:104420000968088001202A490968488017480068FF
:104430000C30274909684860144800680C3024494A
:10444000096888600023012222A12448FFF7D4FDD7
:104450001E4800682249086000BFC8E7705A00087B
:1044600046756E6374696F6E5B25735D207368615A
:104470006C6C206E6F7420626520757365642069B2
:104480006E204953520A0000300000005C000020FA
:104490006D656D20696E69742C206572726F722073
:1044A000626567696E206164647265737320307839
:1044B00025782C20616E6420656E642061646472CE
:1044C00065737320307825780A00000050000020C2
:1044D0005400002068656170000000007003002037
:1044E0005800002010B500200C49088000BF00BF14
:1044F000002405E00A4901EBC400FFF719F9641C28
:10450000202CF7DB1F2007490870002006490860AF
:10451000064908600648FFF70BF910BDCC000020E3
:1045200098030020D4000020D0000020D8000020F4
:10453000DC00002070B508480068FCF733FB451E1E
:10454000064850F83500A0F11C040548046004F149
:104550002400FBF71CFE70BDD8000020980300204B
:10456000D000002010B5002405E0044901EBC40090
:10457000FFF7E1F8641C002CF7D010BDF400002018
:1045800070472DE9FF5F06460F4690461D46DDE960
:104590000EAB31460120FFF7C5FA8146B9F1000F95
:1045A00003D1002004B0BDE8F09F2846FFF716F9BC
:1045B000044624B94846FFF72BFB0020F2E74346A8
:1045C0003A46314648468DE8300CFCF7A9FD48468E
:1045D000E8E7000070B513480468FBF7A3FD054643
:1045E0002046FFF7C9FC042084F83C0004F1540085
:1045F00000F0D0FB2046FFF711FC012806D1D4F8CB
:10460000880018B92046FFF753FB04E004F11C01B1
:104610000548FFF79AF82846FBF788FDFFF71CFCD2
:1046200070BD0000D0000020DC0000200FE000245E
:1046300008E0074850F8240018B1054951F8240053
:104640008047641C042CF4D300F004F800BFEEE7AC
:10465000E002002070B550E000BFFBF763FD0646A6
:10466000FEF7E2FF40B1284928A0FFF749F8992258
:10467000254930A0FEF7A2FC3046FBF757FD00BFEE
:10468000FBF750FD0546FCF7C3FA40B32A48006823
:10469000A0F11C0404F11C00D0E900215160D0E914
:1046A000001211604060006000BFFEF7EFFCD4F81C
:1046B000880018B12046D4F8881088472046FFF7B4
:1046C000ADFB012808D12046FFF7F2FAFEF7EEFC19
:1046D0002846FBF72BFD70BDFEF7E8FC03E02846FB
:1046E000FBF724FDF7E72846FBF720FD206BFEF7DC
:1046F000FFFC2046FFF78CFA00BFFCF789FA002880
:10470000AAD100BFE7E70000F457000846756E63C2
:1047100074696F6E5B25735D207368616C6C206ECD
:104720006F74206265207573656420696E2049533B
:10473000520A000030000000DC0000201FB52020DD
:104740001F21C200074BCDE90032CDE90210002342
:10475000054A06A1074800F00FF8064800F0EAF8FD
:104760001FBD0000E00100202D4600087469646C44
:1047700065000000500100202DE9FF5F04460D4652
:10478000174698460EAE96E8400E24B9E6220D492B
:104790000DA0FEF713FC26B9E7220A490FA0FEF789
:1047A0000DFC2A4601212046FFF7DEFA43463A4631
:1047B000294620468DE8400EFCF7B2FC04B0BDE867
:1047C000F09F0000655B00087468726561642021D9
:1047D0003D2052545F4E554C4C0000007374616391
:1047E0006B5F737461727420213D2052545F4E558B
:1047F0004C4C000070B50446204600F0DBF905463D
:10480000284600F055F870BD70B504462CB940F24A
:10481000B5221C491CA0FEF7D1FB2046FFF78AFAFF
:10482000012805D040F2B62216491C48FEF7C6FB07
:1048300000BF00BF94F83C0000F00F00022804D035
:1048400000BF00BF4FF0FF3070BDFBF76BFC0546AB
:1048500004F11C00FEF7B9FF04F1540000F00EFC57
:104860002846FBF763FC2046FFF748FB00BF0C48D7
:10487000006818B120460A490968884700BF00202F
:10488000E2E70000DC5B0008746872656164202167
:104890003D2052545F4E554C4C000000FC5D00081A
:1048A000EC0000200148006870470000D0000020A4
:1048B00031B5FBF737FC0546164804682CB94FF4B0
:1048C000FB72154915A0FEF779FB2046FFF732FA77
:1048D000012805D040F2F7120F491548FEF76EFB8C
:1048E000204600F089F86A46002104F1540000F0E7
:1048F000F5F904F1540000F0E1FA2846FBF716FC44
:10490000FFF7AAFAA06B801C08B90020A063002062
:1049100038BD0000D0000020A85B000874687265F4
:10492000616420213D2052545F4E554C4C000000E4
:10493000FC5D000810B504462CB94FF48672194985
:1049400019A0FEF73BFB94F83C0000F00F0028B1E3
:1049500040F20D12134919A0FEF730FB2046FFF775
:10496000E9F9012805D04FF487720E492148FEF776
:1049700025FB94F83E0084F83D0094F83D1001209A
:104980008840206400BF00BF022084F83C0020461D
:10499000FFF73AFFFFF786FF08B1FFF75DFA002047
:1049A00010BD0000745B00087468726561642021AA
:1049B0003D2052545F4E554C4C00000028746872E4
:1049C0006561642D3E7374617420262052545F54D7
:1049D00048524541445F535441545F4D41534B2924
:1049E000203D3D2052545F5448524541445F494E5A
:1049F00049540000FC5D000870B504462CB940F233
:104A00008A221E491EA0FEF7D9FA2046FFF792F926
:104A1000012805D040F28B2218491E48FEF7CEFA35
:104A200000BF00BF94F83C0000F00F00012804D044
:104A300000BF00BF4FF0FF3070BDFBF773FB0546B2
:104A400094F83C0020F00F0040F0020084F83C0095
:104A50002046FFF791FA04F1540000F00FFB2846BE
:104A6000FBF764FB00BF0C48006818B120460A49F8
:104A70000968884700BF0020DEE70000CA5B000825
:104A800074687265616420213D2052545F4E554C1C
:104A90004C000000FC5D0008E800002070B50546F1
:104AA0002C462CB940F2E222134914A0FEF786FAF4
:104AB00094F83C0000F00F00022805D040F2E322F9
:104AC0000D4913A0FEF77AFA2046FFF733F90128C3
:104AD00005D04FF4397208491C48FEF76FFA6FF0A1
:104AE0000100A06304F11C00FEF76FFE2046FFF7F3
:104AF00005FAFFF7B1F970BDED5B000874687265E7
:104B0000616420213D2052545F4E554C4C00000002
:104B1000287468726561642D3E7374617420262068
:104B200052545F5448524541445F535441545F4D81
:104B300041534B29203D3D2052545F54485245413A
:104B4000445F53555350454E44000000FC5D00083F
:104B500070B5FBF7E7FA05461448046894F83C0082
:104B600000F00F0001281CD1D4E90710814218D0B1
:104B700004F11C00FEF729FE94F83D200C4B03EBDA
:104B8000C20004F11C014268116042684A60416041
:104B9000086000BF2846FBF7C9FAFFF75DF900205F
:104BA00070BD2846FBF7C2FA0020F9E7D0000020CC
:104BB000980300200146002902DA4FF0FF3014E08C
:104BC0004FF47A7291FBF2F24FF47A7302FB03F026
:104BD0001A4691FBF2F302FB13124FF47A735A4315
:104BE00002F2E73292FBF3F210447047014800688A
:104BF000704700003000002010B50A480068401CD3
:104C000008490860FFF74EFE0446206D401E2065EF
:104C1000206D18B9E06C2065FFF79AFF00F004F8EA
:104C200010BD00003000002070B500BF00BFFFF7CE
:104C3000DDFF0546FBF776FA06463CE024480068AF
:104C4000A0F11C04206B281A6FF00041884231D279
:104C500000BF2048006818B120461E4909688847EF
:104C600000BF2046FCF7E5FAD4E909108847FFF7B2
:104C7000BDFF054600BF1848006818B12046164918
:104C80000968884700BF00BF00BF607C00F00200D9
:104C900058B1607C00F0010038B1607C20F0010068
:104CA0006074204600F00AF905E0607C20F0010005
:104CB000607400E004E00648FEF764FD0028BDD003
:104CC00000BF3046FBF732FA00BF00BF70BD0000E6
:104CD000F4000020FC0000200001002070B5044614
:104CE0000E4615462CB94FF4E772154915A0FEF78C
:104CF00065F92046FFF71EF80A2805D040F2CF12CA
:104D00000F4915A0FEF75AF94EB1012E04D0022E1C
:104D100008D0032E10D10AE0E06A28600CE0286871
:104D2000E06209E0607C20F00200607404E0607CD6
:104D300040F00200607400BF00BF002070BD0000A2
:104D4000595C000874696D657220213D2052545FE2
:104D50004E554C4C0000000072745F6F626A6563D0
:104D6000745F6765745F74797065282674696D6512
:104D7000722D3E706172656E7429203D3D20525443
:104D80005F4F626A6563745F436C6173735F5469FC
:104D90006D65720070B5044624B9CF22124913A084
:104DA000FEF70CF92046FEF7C5FF0A2804D0D022F2
:104DB0000D4913A0FEF702F92046FFF72FF820B99E
:104DC000D12209491DA0FEF7F9F8FBF7ABF905461A
:104DD0002046FCF72EFA2846FBF7A8F92046FEF7F6
:104DE00067FF002070BD00001C5C000874696D65E1
:104DF0007220213D2052545F4E554C4C0000000063
:104E000072745F6F626A6563745F6765745F7479FB
:104E10007065282674696D65722D3E706172656ECD
:104E20007429203D3D2052545F4F626A6563745F70
:104E3000436C6173735F54696D65720072745F6F68
:104E4000626A6563745F69735F73797374656D6FAC
:104E5000626A656374282674696D65722D3E70619F
:104E600072656E74290000002DE9F84304460D4672
:104E700016461F46DDE9088924B9BA2209490AA065
:104E8000FEF79CF82A460A212046FEF76DFF4346AE
:104E90003A4631462046CDF80090FCF7A9F9BDE826
:104EA000F88300000E5C000874696D657220213D76
:104EB0002052545F4E554C4C000000002DE9F84341
:104EC00005462DB94FF499724B494CA0FEF776F880
:104ED0002846FEF72FFF0A2805D040F23312464934
:104EE0004BA0FEF76BF8FBF71DF980462846FCF750
:104EF000A0F9687C20F0010068744046FBF716F9C1
:104F000000BF5248006818B12846504909688847D0
:104F100000BF6FF00041E86A884205D340F24312B7
:104F200035494BA0FEF74AF8FFF760FEE96A0844EE
:104F30002863FBF7F7F880464E4E009600242AE0DF
:104F400019E05DF8242011681C2202EBC402881AC3
:104F5000026B2B6BD21A00D108E0026B2B6BD21ABA
:104F60006FF000439A4200D20CE000BF5DF82400CD
:104F700000684DF824005DF8240006EBC401496880
:104F80008842DED100BF2CB15DF824000830611CDE
:104F90004DF82100641C002CD2D037480068401C1A
:104FA000354908600846076805F11C010098FEF7BE
:104FB000D3FB022412E007F0030060B9C4F101033F
:104FC00005F11C0202EBC301C4F101025DF82200ED
:104FD000FEF7C2FB00E003E0BF08641C012CEAD925
:104FE00000BF687C40F0010068744046FBF79EF803
:104FF0000020BDE8F88300003C5C000874696D6522
:105000007220213D2052545F4E554C4C0000000050
:1050100072745F6F626A6563745F6765745F7479E9
:105020007065282674696D65722D3E706172656EBB
:105030007429203D3D2052545F4F626A6563745F5E
:10504000436C6173735F54696D657200C400002026
:1050500074696D65722D3E696E69745F7469636B06
:10506000203C2052545F5449434B5F4D4158202F00
:1050700020320000F40000200401002070B5044636
:105080002CB940F2AB12174917A0FDF797FF204645
:10509000FEF750FE0A2805D04FF4D672114917A02A
:1050A000FDF78CFF607C00F0010010B94FF0FF307D
:1050B00070BD00BF2048006818B120461E4909682D
:1050C000884700BFFBF72EF805462046FCF7B1F8ED
:1050D0002846FBF72BF8607C20F00100607400206C
:1050E000E6E700004B5C000874696D657220213DA5
:1050F0002052545F4E554C4C0000000072745F6F9C
:10510000626A6563745F6765745F74797065282689
:1051100074696D65722D3E706172656E7429203DF3
:105120003D2052545F4F626A6563745F436C6173E4
:10513000735F54696D657200C80000202DE9FF4F50
:1051400089B0804644460A9808EB0006464504D2DA
:105150004FF0FF36A6EB08000A906FE10B9800783D
:10516000252806D0B44202D20B9800782070641C27
:1051700061E1002526E00B98401C0B900B9800780D
:105180002D2802D145F010051CE00B9800782B2843
:1051900002D145F0040515E00B980078202802D1D3
:1051A00045F008050EE00B980078232802D145F061
:1051B000200507E00B980078302802D145F0010562
:1051C00000E000E0D7E700BF4FF0FF370B98007812
:1051D00030380A2804D20BA800F01EFA07460EE069
:1051E0000B9800782A280AD10B98401C0B900C9839
:1051F00080C80C90002F02DA7F4245F010054FF076
:10520000FF390B9800782E281CD10B98401C0B906E
:105210000B98007830380A2804D20BA800F0FCF96B
:1052200081460AE00B9800782A2806D10B98401C8A
:105230000B900C9850F8049B0C90B9F1000F01DA18
:105240004FF00009002004900B980078682803D0E4
:105250000B9800786C2805D10B98007804900B9877
:10526000401C0B900A2005900B9800786F2875D091
:105270000CDC632813D004DC252870D058286FD1AB
:105280008DE064286DD06928F9D18FE070286AD04C
:10529000732825D0752878D07828F0D182E005F0E1
:1052A000100040B904E0B44201D220202070641CF8
:1052B000781E071EF7DC0C9810F8041B0C90C8B27F
:1052C0000790B44201D207982070641C04E0B442F5
:1052D00001D220202070641C781E071EF7DCAAE093
:1052E0000C98006806900C98001D0C90069808B960
:1052F0005CA006900698FFF727F88346B9F1000FE7
:1053000002DDCB4500DDCB4605F0100048B904E0D6
:10531000B44201D220202070641C38467F1E5845BC
:10532000F6DC002008900BE0B44202D20698007828
:105330002070641C0698401C06900898401C089039
:1053400008985845F0DB04E0B44201D220202070D8
:10535000641C38467F1E5845F6DC6CE01CE015E006
:1053600028E022E0FFE7781C10B9082745F0010586
:10537000CDE9007902950C9804C8102331460C90B1
:105380002046FDF721FD044655E012E0B44201D26B
:1053900025202070641C4EE0082005901DE045F09B
:1053A000400500BF1020059017E000BF45F0020542
:1053B00000BF12E0B44201D225202070641C0B987B
:1053C000007830B1B44202D20B9800782070641C8F
:1053D00002E00B98401E0B902DE000BF04986C2853
:1053E00007D10C9850F804AB0C9005F00200B8B14E
:1053F00016E0049868280BD10C9830F8041B1FFAAB
:1054000081FA0C9005F0020050B10FFA8AFA07E019
:105410000C9850F804AB0C9005F0020000B100BFEE
:10542000CDE900790295524631462046059BFDF7AD
:10543000CBFC044600BF0B98401C0B900B980078E7
:1054400000287FF48BAE0A9838B1B44202D2002013
:10545000207002E0002006F8010CA4EB08000DB05B
:10546000BDE8F08F284E554C4C29000000207047B5
:1054700000207047002070470020704710B5FAF7F1
:1054800051FEFDF743FFFEF707FFFFF76BF8FFF74D
:1054900029F8FDF76BFDFFF773F8FFF74FF9FFF7FA
:1054A00049F8002010BD000070B5044609A0FEF7C1
:1054B00027F9FDF75FFB012802D12046FDF766FAC8
:1054C000FCF7ECF805462246294603A0FEF718F93A
:1054D00070BD00000A000000257325730000000065
:1054E00070B5044606A0FEF70BF9FCF7D7F80546A1
:1054F00004F62E22294604A0FEF702F9002070BD12
:105500001B5B324B0D00000025732573000000006B
:1055100070B50446B4F87E0A002862D0A08D202819
:1055200033DB502204F62E2104F6DE10FAF7B7FE24
:10553000002856D000250EE06A1C02EB820304F11D
:105540002E0202EB031105EB850302EB0310502240
:10555000FAF762FE6D1C1F2DEEDB05EB850204F1F0
:105560002E0101EB02105021FAF76FFEB4F87E2AEB
:1055700005EB850304F12E0101EB031004F62E2147
:10558000FAF74AFE2020A0852BE0A08D68B1A18DFE
:10559000491E01EB810204F12E0101EB02105022A1
:1055A00004F62E21FAF77BFED8B1A08D6085A18D7F
:1055B00001EB810204F12E0101EB02105021FAF7F8
:1055C00044FEB4F87E2AA18D01EB810304F12E0183
:1055D00001EB031004F62E21FAF71EFEA08D401CED
:1055E000A085A08D608570BD70B5044625680CE06F
:1055F000A5F11C06314606A0FEF782F82868A042F5
:1056000002D004A0FEF77CF82D68A542F0D170BD51
:10561000257300002F0000000146002009E00B6800
:105620005A1C0A601A7800EB800302EB4302A2F1D5
:1056300030000A681278303A0A2AF0D3704710B561
:1056400003461A4601E0521C491C107828B108781C
:1056500018B110780C78A042F5D0D01A10BD000017
:1056600010B51EA0FEF74CF82048018820A0FEF7D8
:1056700047F81E48008800F0010010B122A0FEF794
:105680003FF81A48008800F0020010B121A0FEF790
:1056900037F81648008800F0040010B120A0FEF78B
:1056A0002FF81248008800F0080010B11EA0FEF785
:1056B00027F80E48008800F4807010B11CA0FEF797
:1056C0001FF80A48008800F4007010B11BA0FEF714
:1056D00017F805A0FEF714F810BD00007573616798
:1056E00065206661756C743A0A0000002AED00E0DE
:1056F0005343425F434653525F554653523A3078C4
:105700002530325820000000554E444546494E533E
:1057100054522000494E5653544154452000000035
:10572000494E5650432000004E4F43502000000089
:10573000554E414C49474E4544200000444956428D
:10574000595A45524F20000008B501210420FAF7AC
:10575000C3FF01218803FAF7BFFF18208DF803006B
:105760004FF40070ADF8000003208DF80200694688
:105770000848FAF74FFE48208DF803004FF4806088
:10578000ADF8000003208DF8020069460148FAF7E1
:1057900041FE08BD000801407FB505460C46FFF7F5
:1057A000D3FF01218803FAF797FF0C20ADF80A0018
:1057B00000940020ADF80400ADF80800ADF8060034
:1057C000ADF80C0069462846FBF756F9012128463A
:1057D000FBF71BF97FBD10B5FEF75EFD002010BD85
:1057E00072745F6170706C69636174696F6E5F6918
:1057F0006E69740072745F7468726561645F696475
:105800006C655F6578637574650072745F73656D50
:105810005F696E69740072745F73656D5F6465744F
:105820006163680072745F73656D5F637265617454
:10583000650072745F73656D5F64656C65746500A7
:1058400072745F73656D5F74616B650072745F7312
:10585000656D5F72656C656173650072745F736519
:105860006D5F636F6E74726F6C0072745F6D7574D0
:1058700065785F696E69740072745F6D75746578C0
:105880005F6465746163680072745F6D75746578D8
:105890005F6372656174650072745F6D75746578BD
:1058A0005F64656C6574650072745F6D75746578AE
:1058B0005F74616B650072745F6D757465785F729B
:1058C000656C656173650072745F6D757465785F92
:1058D000636F6E74726F6C0072745F6576656E7460
:1058E0005F696E69740072745F6576656E745F647B
:1058F00065746163680072745F6576656E745F637A
:1059000072656174650072745F6576656E745F645C
:10591000656C6574650072745F6576656E745F733F
:10592000656E640072745F6576656E745F72656340
:10593000760072745F6576656E745F636F6E747205
:105940006F6C000000010002000100030001000272
:105950000001000400010002000100030001000238
:105960000001000500010002000100030001000227
:105970000001000400010002000100030001000218
:105980000001000600010002000100030001000206
:1059900000010004000100020001000300010002F8
:1059A00000010005000100020001000300010002E7
:1059B00000010004000100020001000300010002D8
:1059C00000010007000100020001000300010002C5
:1059D00000010004000100020001000300010002B8
:1059E00000010005000100020001000300010002A7
:1059F0000001000400010002000100030001000298
:105A00000001000600010002000100030001000285
:105A10000001000400010002000100030001000277
:105A20000001000500010002000100030001000266
:105A30000001000400010002000100030001000257
:105A40000001003031323334353637383961626322
:105A50006465660030313233343536373839414287
:105A60004344454600706C75675F686F6C657300F2
:105A700072745F73797374656D5F686561705F6977
:105A80006E69740072745F6D616C6C6F6300727428
:105A90005F7265616C6C6F630072745F66726565DE
:105AA0000072745F6F626A6563745F696E69740027
:105AB00072745F6F626A6563745F64657461636862
:105AC0000072745F6F626A6563745F616C6C6F63B0
:105AD0006174650072745F6F626A6563745F6465A8
